:020000040800F2
:10000000C0040020A1010008771B0008851A000821
:10001000751B0008650A0008FD1F000800000000AD
:10002000000000000000000000000000A51C000807
:10003000670A000800000000791B0008A71C0008E0
:10004000BB010008BB010008BB010008BB010008A0
:10005000BB010008BB010008BB010008BB01000890
:10006000BB010008BB010008BB010008BB01000880
:10007000BB010008BB010008BB010008BB01000870
:10008000BB010008BB010008BB010008BB01000860
:10009000BB010008BB010008BB010008BB01000850
:1000A000BB010008BB010008BB010008BB01000840
:1000B000BB010008BB010008BB010008BB01000830
:1000C000BB010008BB010008BB010008BB01000820
:1000D000BB010008F11F0008BB010008BB010008BC
:1000E000BB010008BB010008BB010008BB01000800
:1000F000BB010008BB010008BB010008BB010008F0
:10010000BB010008BB010008BB010008BB010008DF
:10011000BB010008BB010008BB010008BB010008CF
:10012000BB010008BB010008BB010008BB010008BF
:10013000BB010008BB010008BB010008BB010008AF
:10014000BB010008BB010008BB010008BB0100089F
:10015000BB010008BB010008BB010008BB0100088F
:10016000BB010008BB010008BB010008BB0100087F
:10017000BB010008BB010008BB0100080000000033
:10018000BB010008BB010008DFF810D000F0C8FA7E
:1001900000480047D12E0008AFF30080C0040020C3
:1001A0000648804706480047FEE7FEE7FEE7FEE711
:1001B000FEE7FEE7FEE7FEE7FEE7FEE7411D00087B
:1001C000890100082DE9F05F0546002092469B4614
:1001D00088460646814640241BE02846414647465D
:1001E000224600F048F953465A46C01A914110D3AE
:1001F00011461846224600F02FF92D1A67EB010828
:100200004F4622460120002100F026F917EB000995
:100210004E41201EA4F10104DFDC484631462A4647
:100220004346BDE8F09FD2B201E000F8012B491E21
:10023000FBD270470022F6E710B513460A46044683
:100240001946FFF7F0FF204610BD2DE9FE4F81EA69
:10025000030404F0004421F0004100944FF0000B2F
:1002600023F0004350EA01045ED052EA03045BD05D
:10027000C3F30A54C1F30A552C44A4F2F334019495
:10028000A0FB0254C1F3130141F48011C3F3130323
:1002900043F4801301FB024400FB034E840A970AD7
:1002A00044EA815447EA8357A4FB076802958D0A04
:1002B00005FB07854FEA932C04FB0C542705029D90
:1002C0004FEA065847EA1637B5EB08056EEB070C00
:1002D000870E920E47EA811742EA8312A7FB0201BA
:1002E000B6EB0B0164EB00042B0D43EA0C335E18F4
:1002F00044EB1C50DA465146E7FB0201C5F31304F8
:100300004FEA0B3343EA14534FEA0432019C43EAA9
:100310000603A4F10C040294009CCDE900B400F0A3
:10032000C9F803B0BDE8F08F00200146F9E72DE9D8
:10033000F04D81EA030404F0004B21F0004514461F
:100340004FF0000A23F0004150EA050220D054EAA1
:1003500001021DD0C5F30A570246C5F31303C1F3CA
:100360001300C1F30A5640F4801543F48013A7EB41
:100370000608101BD64608F2FD3873EB050002D3C1
:1003800008F1010801E092185B41B8F1000F03DAAF
:1003900000200146BDE8F08D00204FF48011064694
:1003A00084460EE0171B73EB050705D3121B63EBA6
:1003B000050306434CEA010C49084FEA3000921845
:1003C0005B4150EA0107EDD152EA030012D082EA04
:1003D000040083EA0501084305D0101BAB4106D297
:1003E0000122002306E000224FF0004302E06FF0FC
:1003F000010253101AEB06004CEB085110EB0A00F7
:1004000041EB0B01BDE8F04D00F045B80EB540F2F0
:10041000334102910021CDE900110A460B4600F05C
:1004200049F803B000BDC1F30A5210B5C1F313017E
:1004300040F2FF3341F480119A4201DA002010BDEE
:1004400040F233439A42A2F2334203DC524200F0BC
:1004500012F810BD904010BD202A04DB203A00FAAB
:1004600002F1002070479140C2F1200320FA03F30B
:10047000194390407047202A04DB203A21FA02F009
:100480000021704721FA02F3D040C2F120029140CE
:1004900008431946704710B5141E73F1000408DABA
:1004A000401C41F1000192185B411A4301D120F038
:1004B000010010BD2DE9F04D92469B4611B1B1FAF5
:1004C00081F202E0B0FA80F220329046FFF7C4FFDA
:1004D00004460F4640EA0A0041EA0B0153465A46D9
:1004E000084313D0114653EA010019D0C8F1400265
:1004F0005046FFF7C0FF05460E4650465946424655
:10050000FFF7AAFF084305D0012004E02046394642
:10051000BDE8F08D0020054346EAE0762C433743E2
:100520000A986305E40AA0EB08000022FD0A44EAE9
:1005300047540A3002D500200146E9E701051019A9
:100540006941DDE9084500196941BDE8F04DA2E7C0
:100550002DE9FE4F804681EA0300C00F0C46009053
:1005600021F0004123F00045B8EB0200A94105D27B
:100570004046214690461C460B46024623F000406A
:10058000104347D0270DC7F30A00C3F30A51029066
:10059000401A019040286BDAC3F3130040F4801B2B
:1005A0000098924620B10023D2EB030A63EB0B0BB9
:1005B00001985946C0F140025046FFF74DFF0646EC
:1005C0000D4650465946019A00F0BCF810EB080061
:1005D0006141002487EA115284EAE7731A4340D04C
:1005E000009A62B3019A012A4FEA075215DC001BF8
:1005F00061EB02014FF0004202EA0752CDE90042EE
:10060000001C41F5801132462B46FFF753FF03B023
:10061000BDE8F08F40462146F9E7001B61EB02017F
:10062000001C41F5801300185B412018A2F500174B
:1006300047EB030140EAD570B6196D4111E06D0832
:100640004FEA360645EAC0754FEA0752001B61EBD8
:100650000201001C41F5801149084FEA30000019E1
:10066000514132462B4603B0BDE8F04FFFF713BFB0
:100670000098012240000023D0EB020263EBE073FC
:10068000009821464FEAE074B8EB000061EB0401EA
:10069000E9E783F000435BE781F0004158E770B57C
:1006A00021F0004303430CD0C1F30A550024D5EBDD
:1006B000040564EB0403D617AD1AB34102DB002036
:1006C000014670BD201841EB025170BD0EB5C10F3F
:1006D00080EAE0700844CA07002140F233438DE805
:1006E0000E000A460B46FFF7E5FE03B000BD000012
:1006F00030B5041E71F1000404DB4FF000444042A9
:1007000064EB0101141E73F1000405DB1C464FF07D
:100710000043524263EB0403994208BF904230BD4C
:10072000064C074D06E0E06840F0010394E807003E
:1007300098471034AC42F6D3FFF72AFD6830000822
:1007400088300008202A06DBCB17203A41FA02F055
:1007500043EAE07306E041FA02F3D040C2F120021E
:1007600091400843194670472DE9F04D00231A4681
:100770001B1A8A4103DB00200146BDE8F08DC1F35E
:100780000A52C1F3130141F480154FF0000BD10759
:1007900002D100186D41521E0027044640F2FF119D
:1007A000384601EB620A3E468046024600204FF47E
:1007B0008011FFF760FEC2197141BB1846EB0100C2
:1007C000B4EB030C75EB000C04D3E41A65EB0005E5
:1007D00017460E46241908F101006D418046342861
:1007E000E3DDF91946EB0600091BA84103D24FF0DF
:1007F000FF32134601E0002213461BEB070046EBD5
:100800000A51BDE8F04DFFF746BE10B501F03CF9C6
:1008100001F072F9BDE810400A2000F083B9000031
:100820002DE9F0410E4F0C4605464FF4805600224C
:100830003146384600F080FA012000F073F9A2B288
:100840004FF0FF332946074800F050FE012000F02A
:1008500069F931463846BDE8F041012200F06CBA32
:10086000000402401C000020074A08B5118860F30C
:10087000CB211180080A8DF800008DF801100221AB
:100880006846FFF7CDFF08BD10000020074A08B5F5
:10089000118860F38A211180080A8DF800008DF814
:1008A000011002216846FFF7BBFF08BD10000020C1
:1008B00030B50C462DED028B81B005469FED251B12
:1008C0009FED260B01F0CCFBB0EE408AF0EE608A83
:1008D0002046FFF79BFD53EC182BFFF7B6FC9FED6E
:1008E000211B53EC112BFFF722FDFFF79CFD820B20
:1008F000B1B262F30D01002D0DD000BF21F4804193
:1009000041F40041A2B260F30D020AD122F400408A
:1009100040F4804009E041F4804100BF21F40041EF
:10092000F0E722F4804040F400404FEA10228DF8B6
:1009300000208DF801004FEA11208DF802008DF89B
:1009400003104FF004016846FFF76AFF01B0BDECE9
:10095000028B30BD0000000000003C4000000000A1
:100960000000004000000000A3E19141114908B5DA
:100970000B8823F0200220B1012805D0022808D1DD
:1009800012E022F0020001E042F0020020F0080034
:1009900008800888010A8DF800108DF801000221F6
:1009A0006846FFF73DFF08BD23F0020040F0280035
:1009B000EEE700001000002010B504462DED028B7C
:1009C00082B00846FFF722FD41EC180B9FED151B86
:1009D0009FED160B01F044FB9FED161B51EC100B25
:1009E00053EC112BFFF7A3FC53EC182BFFF72DFC56
:1009F000FFF719FD1149098889B260F30B0114B1A1
:100A000041F4005001E021F40050010A8DF800107B
:100A10008DF8010002216846FFF702FF02B0BDEC2D
:100A2000028B10BD00000000000028400000000004
:100A3000000000400000000000807640D02F000839
:100A4000074A08B5118860F308211180080A8DF85B
:100A500000008DF8011002216846FFF7E1FE08BD95
:100A600010000020FEE7704772B6FEE72DE9F04166
:100A70000446876D00F066F9064694F835000025B7
:100A8000022806D08020606584F834500120BDE83B
:100A9000F0812068016821F0160101602068416939
:100AA00021F080014161206C08B9A06C20B1206860
:100AB000016821F0080101602068016821F001014E
:100AC00001600CE000F03EF9801B052807D92020CA
:100AD0006065032084F8350084F83450D7E7206837
:100AE0000068C007EED194F85C103F208840B860E1
:100AF000012084F8350084F834500020C7E790F8CE
:100B00003510022903D0802141650120704705215D
:100B100080F835100068016821F0010101600020B3
:100B20007047000070B5044600F00CF90546601CE3
:100B300002D004480078044400F004F9401BA042AD
:100B4000FAD370BD000000202DE9F84FDFF8BCA1FA
:100B50000022012503264FF00F090AF1040BAAF128
:100B6000040E00BF0B6805FA02F42340A34270D1C3
:100B70000F7907F00307012F01D0022F16D18768E4
:100B80004FEA420806FA08FC27EA0C07D1F80CC025
:100B90000CFA08FC4CEA070CC0F808C04768A743E9
:100BA0000C79C4F3001494403C4344600C79E44352
:100BB000A4070AD0C4684FEA420C06FA0CF7BC43FB
:100BC0008F6807FA0CF72743C7600C7904F0030419
:100BD000022C12D1D40800EB840CDCF8204057071B
:100BE000FF0E09FA07F824EA0804D1F8108008FA81
:100BF00007F848EA0408CCF8208004684FEA420C61
:100C000006FA0CF7BC430F7907F0030707FA0CF755
:100C1000274307604C6814F4403F70D03C4C276871
:100C200047F480472760246822F0030704F48044D7
:100C30000094384C07EB040CDCF8084897074FEA9F
:100C4000177809FA08F7BC43334FB84202D100279E
:100C500024E054E0314FB84201D101271EE0304F6B
:100C6000B84201D1022719E02E4FB84201D1032723
:100C700014E02D4FB84201D104270FE02B4FB842AA
:100C800001D105270AE02A4FB84201D1062705E025
:100C9000284FB84201D1072700E0082707FA08F7D4
:100CA0002743CCF80878DAF800405746D1F804C05A
:100CB0009C435FEACC2C00D51C433C60DBF8004031
:100CC0005F46D1F804C09C435FEA8C2C00D51C43DE
:100CD0003C60DEF800407746D1F804C09C435FEAF0
:100CE0008C3C00D51C433C60084F083F3C68D1F861
:100CF00004C09C435FEACC3C00D51C433C60521CC2
:100D0000102AFFF42FAFBDE8F88F0000083C014027
:100D1000443802400030014000000240000402401C
:100D200000080240000C0240001002400014024083
:100D300000180240001C02400AB18161704709049A
:100D4000FBE70000014880687047000000000020B9
:100D500002488168027811448160704700000020D9
:100D60000B4810B5016841F400710160016841F45D
:100D700080610160016841F480710160032000F02E
:100D80006FF80F2000F006F800F024F8002010BDE6
:100D9000003C024070B50D4D04464FF47A7128783E
:100DA000B1FBF0F00A490968B1FBF0F000F051FC2A
:100DB00048B9102C07D200222146501E00F030F80E
:100DC00000206C6070BD012070BD0000000000209C
:100DD0000C0000200A4808B5016841F48041016018
:100DE000006800F4804000900548001F016841F051
:100DF00080510160006800F08050009008BD000044
:100E000044380240002809DB00F01F020121914014
:100E10004009800000F1E020C0F800117047000098
:100E2000F0B40E4B1B680C46C3F30223C3F1070555
:100E3000042D00D90425191D072901D2002300E043
:100E4000DB1E012606FA05F1491E214099409E400D
:100E5000761E16403143F0BC01F0F2B80CED00E014
:100E6000064900F0070208684FF6FF03184040EA01
:100E70000220034A10430860704700000CED00E0B8
:100E80000000FA052DE9F0470E46050065D0DFF8B1
:100E90001481D8F80000F7B200F00700B04207D282
:100EA00088F80070D8F8000000F00700B04254D174
:100EB00028683D4C810712D5400703D5206840F4CF
:100EC000E05020602878000703D5206840F4604097
:100ED00020602068A96820F0F0000843206028788E
:100EE000C0072DD0304968680839012812D002287F
:100EF00013D0032811D00968890700292DDA216849
:100F000021F0030101432160FFF71CFF814641F2FC
:100F1000883A0EE009688903EFE709688901ECE780
:100F2000FFF710FFA0EB0901514502D90320BDE8EE
:100F3000F0872068696800F00C00B0EB810FEFD1FA
:100F4000D8F80010404601F00701B14207D90770F8
:100F5000006800F00700B04201D00120E7E72878E0
:100F6000400705D52068E96820F4E0500843206078
:100F70002878000706D52068296920F4604040EAF7
:100F8000C100206000F038F82168084AC1F303115D
:100F9000515CC8400649086006480068FFF7FAFE41
:100FA0000020C4E7003C024008380240B62F000889
:100FB0000C0000200400002004480549006809686E
:100FC000044AC1F38221515CC84070470C000020E4
:100FD00008380240C62F000804480549006809681F
:100FE000044AC1F34231515CC84070470C000020F4
:100FF00008380240C62F0008154810B5006810F0E8
:101000000C02144813D04110042A0FD0082A0ED124
:101010000F4C241F2268236802F03F025B0207D5B1
:101020002068C0F38810A0FB010106E0084610BD4F
:101030002168C1F38811A1FB00010023FFF7C2F86A
:101040002168C1F30141491C4900B0FBF1F010BD1A
:10105000083802400024F4002DE9F84F04006ED057
:101060002078DFF84C93C007A9F104054AD009F1B4
:1010700004000168C1F38101012908D00068C0F3B0
:10108000810002280AD1D9F80000400206D528685C
:10109000800337D560680028E1D033E06068B0F5A0
:1010A000803F10D0B0F5A02F286810D020F48030F9
:1010B0002860286820F4802028606068A8B1FFF7C5
:1010C00041FE06460DE0286840F48030F4E740F425
:1010D00080202860F7E700BFFFF734FE801B6428FC
:1010E00073D828688003F7D50CE0FFF72BFE06467F
:1010F00005E000BFFFF726FE801B6428F0D82868B3
:101100008003F7D42078DFF8AC8280074FF0000A24
:101110003ED5A748001D016811F00C0F08D00068EB
:10112000C0F3810002280BD1D9F80000400207D497
:101130002868800716D5E068012800D112E033E165
:10114000E068B8B10120C8F80000FFF7FBFD0646D3
:1011500005E000BFFFF7F6FD801B0228C0D8286815
:101160008007F7D52868216920F0F80040EAC1001F
:1011700028600DE0C8F800A0FFF7E4FD064604E093
:10118000FFF7E0FD801B02281FD828688007F7D4EE
:101190002078000722D5864F87486169703771B182
:1011A00001210160FFF7CEFD064604E0FFF7CAFD0E
:1011B000801B022809D838688007F7D50EE0C0F8F0
:1011C00000A0FFF7BFFD064605E082E0FFF7BAFD8D
:1011D000801B02287DD838688007F7D42078400724
:1011E00068D5DFF8CCB100270BF13C0BDBF8000031
:1011F000C0000BD4DBF8001041F08051CBF8001098
:10120000DBF80000012700F0805000906B4E306842
:10121000C00510D4306840F480703060FFF792FD54
:10122000009005E0FFF78EFD0099401A022850D883
:101230003068C005F6D55E4EA0686C3601280FD028
:101240000528306810D020F001003060306820F0B0
:1012500004003060A068B8B1FFF774FD00900FE0A3
:10126000306840F00100F4E740F004003060F7E738
:10127000FFF768FD0099411A41F28830814266D833
:1012800030688007F4D50EE0FFF75CFD009007E0C2
:10129000FFF758FD0099411A41F28830814256D833
:1012A00030688007F4D42FB1DBF8001021F08051B2
:1012B000CBF80010A069C8B33D49091D0968C1F306
:1012C000810102294AD00228504607D0C8F86000A0
:1012D00000E03CE0FFF736FD04463BE04746C8F837
:1012E0006000FFF72FFD064605E000BFFFF72AFD6F
:1012F000801B02282BD828688001F7D4D4E9070185
:101300000843A16A2E4A490802EB0141626A41EA98
:101310008211084394F82C1040EA0161C9F80010CA
:1013200001203866FFF70EFD044606E03EE000BFF0
:10133000FFF708FD001B022809D828688001F7D5AF
:1013400034E000BFFFF7FEFC001B022802D9032097
:10135000BDE8F88F28688001F4D427E00128F7D091
:10136000D9F80000E26900F4800191421CD1226AA0
:1013700000F03F01914217D147F6C071626A014007
:10138000B1EB821F10D1A26A4FF0FF3300F440315D
:1013900003EB5202B1EB024F06D194F82C1000F08F
:1013A0007060B0EB016F01D00120D1E70020CFE7E2
:1013B0000438024000004742800E4742007000405F
:1013C0000000FFFF70B5040009D0606A002540B13D
:1013D00025616561A56294F8510040B10CE00120DF
:1013E00070BD6068B0F5827FF4D0E561F2E784F803
:1013F0005050204600F044F8022084F85100206844
:10140000016821F040010160A088218900F4827008
:1014100001F404410843A18901F400610843217CDF
:1014200001F002010843217D01F001010843218BF5
:1014300001F400710843217F01F03801084394F85A
:10144000201001F080010843218D01F40051084370
:1014500021680860A069042101EA104094F8241072
:1014600001F010010843216848602068C16921F437
:101470000061C1616565012084F85100002070BDE4
:1014800010B586B0044614216846FEF7D3FE144911
:101490002068884221D113480021026842F480422A
:1014A0000260006800F4804005900E481038026821
:1014B00042F002020260006800F0020005904FF462
:1014C000204000900220CDE9010103200390052077
:1014D000049069460448FFF737FB06B010BD0000D2
:1014E0000038004040380240000402402DE9F84F27
:1014F000984616468A460446FFF724FC814694F82F
:10150000510001281ED1BAF1000F73D0002E71D006
:1015100094F85000012815D0012784F8507003205A
:1015200084F8510000256565C4F830A0A686E686DB
:10153000A563A587E58765642564A068B0F5004FBD
:1015400003D00CE00220BDE8F88F2068016821F08C
:10155000400101602068016841F480410160206819
:101560000168490603D4016841F040010160E06868
:10157000B0F5006F606803D048B3012E27D047E074
:1015800008B1012E1FD1206B21680088C86006E0D9
:1015900020688168890709D5216B0988C160206BA3
:1015A000801C2063E08E401EE0860CE0FFF7CAFB43
:1015B000A0EB0901414503D3B8F1FF3F03D035E06B
:1015C000B8F1000F32D0E08E0028E1D123E0206B8B
:1015D00021680078087306E02068816889070AD5C9
:1015E000216B09780173206B401C2063E08E401E44
:1015F000E0860DE02BE0FFF7A5FBA0EB09014145DC
:1016000003D3B8F1FF3F03D010E0B8F1000F0DD0C5
:10161000E08E0028E0D14A464146204600F0AEFA6E
:1016200008B120206065A06830B109E084F85170ED
:1016300084F85050032086E72068C16880680090D5
:1016400084F8517004F8505F60680028F3D00120DE
:1016500079E710B5401EB0F1807F01D3012010BDA5
:101660004FF0E02460610F21601700F0E9FC0020DA
:10167000A06107202061002010BD70477047000066
:10168000F8B5016804460868CA684B6910F00F0F86
:101690004FF0000559D003F0010602F4907737436C
:1016A00065D0C10705D0D10503D5616C41F00101BA
:1016B0006164410705D5D90703D0616C41F002018F
:1016C0006164810705D5D90703D0616C41F004013D
:1016D0006164010707D502F02001314303D0616C3A
:1016E00041F008016164616C00293AD0800604D59C
:1016F000900602D5204600F059FB20684069616CD5
:10170000C0F38010090700D460B3204600F027FB27
:1017100020684069400621D52068143050E8001F39
:1017200021F0400140E80012002AF5D1E06BA8B199
:1017300072490165E06BFFF7E2F9002811D0E06B18
:10174000016D01B0BDE8F040084783060FD5930650
:101750000DD52046BDE8F84000F028BB2046FFF735
:101760008DFFF8BD2046FFF789FF6564F8BD266B45
:101770002023012E7ED1C6067CD5D6067AD50868F0
:101780004868009048694FF0020640064DD5E26B6C
:10179000106840684FF480770004000C3AD0A18DA7
:1017A000814237D9E085D069B8422DD020680C300D
:1017B00050E8001F21F4807140E80012002AF5D1A2
:1017C0002068143050E8001F21F0010140E80012A9
:1017D000002AF5D12068143050E8001F21F04001A4
:1017E00040E80012002AF5D184F8423025632068D1
:1017F0000C3050E8001F21F0100140E80012002AD0
:10180000F5D1E06BFFF732F96663A08DE18D401AE8
:1018100081B206E0A18D8142A8D1D069B842A5D19C
:1018200066632046FFF729FFF8BDA08DE18D401AC1
:1018300081B2E08D0028F7D00029F5D020680C3067
:1018400050E8002F22F4907240E80027002FF5D1D5
:101850002068143050E8002F22F0010240E80027F1
:10186000002FF5D184F84230256320680C3050E811
:10187000002F00E006E022F0100240E80023002BD9
:10188000F3D1CDE705062BD5150629D594F84100EF
:101890002128C9D1A068B0F5805F01D12069B0B11D
:1018A000206A411C2162216800784860E08C401E5B
:1018B0000004000CE084B7D12068C16821F08001E9
:1018C000C1602068C16841F04001C160F8BD206A74
:1018D0000088C0F308004860206A801C2062E5E7A9
:1018E0004006F3D55006F1D5CA68204622F04002E2
:1018F000CA6084F8413000F0C4F8F8BD511D0008FA
:1019000070B5040004D094F84100002510B106E041
:10191000012070BD84F84050204600F023F82420B8
:1019200084F841002068C16821F40051C16020465C
:1019300000F09EFA2068016921F49041016120685D
:10194000416921F02A0141612068C16841F40051D8
:10195000C1606564202084F8410084F8420065631A
:10196000002070BD10B586B0044614216846FEF70D
:1019700061FC18492068884229D117480021026873
:1019800042F010020260006800F01000059012485A
:101990001438026842F001020260006800F00100A1
:1019A00005904FF4C06000900220CDE901010320B2
:1019B00003900720049069460848FFF7C5F8002205
:1019C00011462520FFF72CFA2520FFF71BFA06B059
:1019D00010BD0000001001404438024000000240E9
:1019E00070472DE9F843044690F8410098461646A2
:1019F0000D46202802D00220BDE8F88385B17EB1D3
:101A000000206064212084F84100FFF79BF9A68440
:101A10008146E684A0682027B0F5805F02D003E00D
:101A20000120E9E7206910B12E4600250EE00026CE
:101A30000CE08021204600F0A1FAA8B9C6B116F842
:101A4000010B21684860E08C401EE084E08C4B462E
:101A50004FF00002CDF800800028EAD14FF040019D
:101A6000204600F08BFA40B184F841700320C3E7B0
:101A700035F8020BC0F30800E3E784F8417000205A
:101A8000BAE77047FEE7000070B586B014216846DB
:101A9000FEF7D0FB16480025016841F08001016087
:101AA000016801F080010591016841F002010160C7
:101AB000016801F002010591016841F00101016036
:101AC0000068012200F001000A4E1403059021462F
:101AD0003046FFF731F90120CDE900400220CDE981
:101AE000025069463046FFF72FF806B070BD00007F
:101AF00030380240000402400F4810B50D49016023
:101B00004FF482714160002102228160C0E903121A
:101B10001202C0E90512C1610162416281620A21BB
:101B2000C162FFF74FFC002803D0BDE81040FEF76C
:101B30009BBF10BD003800401C0000200C4810B5B1
:101B40000A4901604FF4E1314160002181600C22BB
:101B5000C160C0E904128161C161FFF7D1FE0028B4
:101B600003D0BDE81040FEF77FBF10BD001001405C
:101B700074000020FEE7FEE770470000F8B5154648
:101B80000E460B46009204460122022100F02CF87A
:101B9000A0B9134813490068B0FBF1F04FF47A7113
:101BA000484300906068B0F5827F0DD13346002233
:101BB00080212046009500F017F870B1606D40F06C
:101BC000200060650320F8BD009830B1401E0090F1
:101BD00020688068C0430006F6D50020F8BD0000EC
:101BE0000C00002000366E012DE9F8431E46914698
:101BF00088460446089DFFF7A5F8401B351AFFF7F5
:101C0000A1F8074626480068C0F3CB3068430AE0D5
:101C1000701C09D0FFF796F8C01BA8420FD275B10F
:101C20000098B8B3401E00902068816838EA01002F
:101C300033D000214945EBD10020BDE8F88320686E
:101C4000416821F0E00141606068B0F5827F0BD10E
:101C5000A068B0F5004F02D0B0F5806F04D12068C5
:101C6000016821F040010160A06AB0F5005F09D170
:101C70002068016821F4005101602068016841F486
:101C800000510160012084F85100002084F85000C8
:101C90000320D2E7FFE70025C6E70121CAE70000DD
:101CA0000C0000207047FFF753B8000030B593B028
:101CB00030216846FEF7BEFA14210CA8FEF7BAFAE6
:101CC0001D480025016841F080510160006800F066
:101CD000805011901948016841F48041016000680A
:101CE000022400F480401190012000900004019033
:101CF0008001CDE9064008AA0420A82182E813004B
:101D00000B906846FFF7A8F908B172B6FEE70CA978
:101D10000F2081E831004FF4A0500F904FF4805015
:101D2000109005210CA8FFF7ADF8002801D072B67D
:101D3000FEE713B030BD00004038024000700040A4
:101D40000248016841F470010160704788ED00E0CD
:101D500010B5806B0021C185FFF790FC10BD0168B4
:101D60000C3151E8002F22F4907241E80023002B3F
:101D7000F5D10168143151E8002F22F0010241E849
:101D80000023002BF5D1016B012909D101680C3129
:101D900051E8002F22F0100241E80023002BF5D17A
:101DA000202180F8421000210163704708B590F8A7
:101DB0004210222901D0022008BD82684FF48053CE
:101DC0009A4201D1016921B1816A9A421BD04AB17C
:101DD0000AE00268816A5268C2F308020A80816AD6
:101DE000891C08E0026972B10268526802F07F0241
:101DF0000A70816A491C8162C18D491E0904090C5F
:101E0000C18503D01BE002685268F1E70168CA6827
:101E100022F02002CA600168CA6822F48072CA6097
:101E200001684A6922F001024A61202180F84210CB
:101E300000214163026B012A03D0FFF7D1FD00208E
:101E400008BD016301680C3151E8002F22F0100237
:101E500041E80023002BF5D101680A68D20602D5BB
:101E60000A6849680091818DFFF707FCE7E70000E9
:101E700070B5044600680169E26821F440511143DD
:101E800001612169A068E26908436169114308435F
:101E90002168CA6849F20C639A430243CA60206809
:101EA0004169A26921F440711143416131492068BF
:101EB000884202D03049884202D1FFF78DF801E014
:101EC000FFF77AF8E2690023192164253226B2F57A
:101ED000004F626828D0A0FB0101930F9200FEF72B
:101EE00071F90146B0FBF5F06FF01802504301EBB9
:101EF000800006EB0010B0FBF5F000F0F002B1FB43
:101F0000F5F002EB0012B1FBF5F06FF01803584347
:101F100001EB800006EB0010B0FBF5F000F00F00C5
:101F200021681044886070BDA0FB010192185B41DC
:101F3000FEF748F90146B0FBF5F00201B1FBF5F000
:101F40006FF01803584301EB800006EBC000B0FBB4
:101F5000F5F000F0F80002EB4002B1FBF5F0584359
:101F600001EB800006EBC000B0FBF5F000F00700CD
:101F7000D6E7000000100140001401402DE9F843AD
:101F8000984617460D460446089E24E0701C22D051
:101F9000FEF7D8FEA0EB0800B0421AD8CEB12068F8
:101FA000C168490717D5802D15D0402D13D0016881
:101FB000C94309070FD401680025406800902046F6
:101FC000FFF7CDFE0820606484F840500120BDE892
:101FD000F8830320FBE72068006835EA000004D09E
:101FE0000020B842D2D00020F1E70120F9E700003C
:101FF0000148FFF745BB000074000020FEE7000029
:10200000014A024900F03ABFB92E0008140000202E
:1020100003B401984100009850EAC12018BF042081
:102020004A0D18BF40F0010040F2FF72B2EB515F61
:1020300008BF40F00200012808BF052002B0704729
:102040000907090E002804DB00F1E02080F80014E5
:10205000704700F00F0000F1E02080F8141D704779
:102060002DE9F04D2DED040B2DED0E8B96B0DDE935
:102070002550279CDDF890A025F0004624F000486C
:10208000BAF1000F14BF0121002101EB4502FC4908
:1020900053184A1093422AD3002814BF0123002367
:1020A00003EB44030B44F7498B4220D358EA000169
:1020B0009FEDF59B76D0DFF8D8B35D4503D1BAF13B
:1020C000000F05D188E0BAF1000F08BF002100D051
:1020D000012101EB450111F5001F08D8002814BFAC
:1020E0000121002101EB440111F5001F0BD99DEDE9
:1020F000261B9DED240B16B0BDEC0E8B04B0BDE885
:10210000F04D00F069BE0027002DBCBFE1498845B5
:1021100021DAE1498845A8BF02271CDAC3451ADC49
:10212000DE4901EB2851142908DDC1F1340220FAFF
:1021300002F101FA02F282420DD108E058B9C1F170
:10214000140228FA02F101FA02F2424503D101F029
:102150000101C1F1020756EA0A0124D1002C22DA5A
:10216000002D18BF022F01D0012F0AD0022000F04D
:102170007FFE16B0BDEC0E8B04B0BDE8F04D00F054
:1021800013BE022000F074FE00F00EFE51EC100BA6
:1021900081F0004141EC100B16B0BDEC0E8B04B089
:1021A000BDE8F08D18E09FEDBEAB9FEDBF8B002822
:1021B00071D1B848804522D105F1804010F58010DA
:1021C00008BFBAF1000F07D0B3450ADC002CA8BF46
:1021D0009DED260BE0DA0DE0B0EE490AF0EE690A5B
:1021E000DAE7002C06DA9DED260B51EC100B81F09E
:1021F00000416FE0AE48784490ED000BCCE7D84545
:102200004DD1002C48DA2EB186423AD1BAF1000FF6
:1022100042D126E0BAF1000F13D0022000F028FED0
:1022200000F0F6FD8DED020B9DED240B8DED000B06
:1022300010EE900A039961F31E0003909DED020BCE
:10224000AAE78DED02AB9DED240B1AEE901A10EE6D
:10225000900A8DED000B61F31E0003909DED020BC3
:102260009AE78DED028B9DED240B18EE901A10EE7F
:10227000900A8DED000B61F31E0003909DED020BA3
:102280008AE709DA9DED240B51EC190B53EC102B66
:10229000FEF74DF81EE020E09DED240B7CE7864222
:1022A0001BDAB4F1804F0DD0A4F10050B0F1FF5013
:1022B00013D1002D11DB9DED240B51EC100B00F020
:1022C00043FE07E09DED240B53EC102B51EC100B5B
:1022D00000F0C2BC41EC100B5EE79DED240B51EC0D
:1022E000100B00F0DCFDBAF1000FCDE90E0142D178
:1022F0009FED710B46B3A6F1E040B0F17F600CD0CA
:102300005E4538D1002D00DAA7B3022F0CBF0120A3
:102310004FF0FF30FEF7DAF9DCE7002D01DD002C8D
:102320000DDA002D01DD002C1FDB002D16DA002C4C
:1023300014DB012F08BF9FED620B3FF42DAFB0EE11
:102340004A0AF0EE6A0A27E7022F18BF002D0CD0C8
:10235000012F0AD1002DFFF61FAF06E0002DB8BFF8
:10236000002C08DA012F3FF417AFB0EE480AF0EE68
:10237000680A11E71BE0012000EBE57050EA070155
:1023800015D0791EB0EE498AF0EE698A084308BF7D
:102390009FED4D8B4E480025804570DD4D494E48E0
:1023A000884514DDB0420DDB002C19DB2FE0012045
:1023B00000F05EFD16B0BDEC0E8B04B0BDE8F04D34
:1023C00000F016BDB34502DC002C09DC1FE086429C
:1023D00002DA002C1BDA03E05E452BDD002C16DD53
:1023E000022000F045FD00F013FD8DED020B53ECD3
:1023F0001A2B51EC180BFDF728FFCDE900010399CA
:10240000019861F31E0003909DED020BC4E60220CB
:1024100000F02EFD00F00CFD10EE901A18EE900A60
:102420008DED020B8DED008B61F31E0003909DED91
:10243000020BB1E69DED0E0B53EC192B51EC100B7A
:10244000FEF727F99FED260BCDE9080153EC102B81
:102450009DED080B51EC100BFDF7F7FE9FED221BD5
:1024600053EC112BFEF718F99DED081B53EC112BC3
:10247000FDF7EBFE9FED1E1B53EC112B3CE08CE0B7
:10248000FFFF1F00FFFF0F00000000000000F03FF3
:102490000000F03F0000F07F0000404301FCFFFF20
:1024A000000000000000F07F0000000000000000BD
:1024B000660E000000000000000000000000008028
:1024C000000000000000F0FF000000000000F0BF6E
:1024D0000000E0410000F043FFFFEF3F000000007C
:1024E000000000000000D03F555555555555D53FCB
:1024F000000000000000E03FFEF7CEF89DED080B65
:1025000041EC1A0B53EC102B51EC100BFDF79DFE18
:1025100053EC1A2BFDF799FE41EC1A0B9FEDFE0BC5
:1025200053EC102B9DED080B51EC100BFDF78DFEBD
:1025300041EC1B0B9FEDFA0B51EC1A0B53EC102BDB
:10254000FDF783FE41EC1A0B9FEDF70B53EC102BBC
:102550009DED080B51EC100BFDF777FE53EC1A2B99
:10256000FEF797F841EC1A0B51EC1B0B53EC1A2BAE
:10257000FDF7EEFF0690CDE906519DED060B53ECFD
:102580001B2B51EC100BFEF784F853EC1A2BFEF7C3
:1025900083F841EC100B00F0A1B90020B6F5801FC4
:1025A0000EDA9FEDE30B53EC102B9DED0E0B51EC6F
:1025B000100BFDF74AFECDE90E016FF034000E4618
:1025C00000EB2650A0F2FF37C6F31300DA4940F0C3
:1025D0007F6646F040568842D8BF002408DDD749C0
:1025E0008142C8BF012403DC0024A6F580167F1CAD
:1025F000D348784400EBC4000F9690ED00CB9DEDDE
:102600000E0B53EC1C2B51EC100BFEF742F89DED1A
:102610000E0B41EC1B0B53EC1C2B51EC100BFDF77C
:1026200097FF41EC100B51EC190B53EC102BFDF7FD
:102630007EFE41EC1D0B51EC1B0B53EC1D2BFDF7EB
:1026400004FE41EC1A0BBF488DED10AB7844109599
:1026500090ED000B4FF0005040EA660000EB844024
:102660008DED080B00F5002009909DED080B53EC53
:102670001C2B51EC100BFEF70CF89DED0E1B53ECD0
:10268000112BFEF709F841EC100B53EC102B9DEDCC
:10269000100B51EC100BFDF7D8FD9DED080B41EC34
:1026A0001C0B53EC102B9DED100B51EC100BFDF798
:1026B000CCFD53EC1B2BFDF7EFFF53EC1C2BFDF770
:1026C000E8FF53EC1D2BFDF7C0FD41EC1C0B53EC58
:1026D0001A2B51EC1A0BFDF7B8FD41EC1B0B9A4875
:1026E0000621B0EE4B0AF0EE6B0A784400F0E0FAF7
:1026F000B0EE401AF0EE601AB0EE41DAF0EE61DAB8
:1027000053EC1B2B51EC1B0BFDF79FFD53EC1D2BCA
:10271000FDF79BFD9DED100B41EC1B0B53EC1A2BB1
:1027200051EC100BFDF714FF53EC1C2BFDF78DFD46
:1027300053EC1B2BFDF70CFF9DED100B41EC1B0B1D
:1027400053EC102B51EC100BFDF77FFD41EC1D0BF2
:102750009FED7FEB53EC1E2BFDF7FAFE53EC1B2B8A
:10276000FDF7F6FE0890CDE908519DED080B53ECFE
:102770001E2B51EC100BFDF78CFF53EC1D2BFDF7BE
:1027800088FF53EC1B2BFDF787FF9DED080B41ECF9
:102790001D0B53EC102B9DED100B51EC100BFDF7A6
:1027A00054FD41EC1B0B53EC1A2B51EC1D0BFDF7A8
:1027B0004CFD9DED080B41EC1A0B53EC102B51EC2A
:1027C0001C0BFDF742FD53EC1A2BFDF7C1FE41EC4B
:1027D0001A0B51EC1B0B53EC1A2BFDF7B9FE0C90A6
:1027E000CDE90C519DED0C0B53EC1B2B51EC100B58
:1027F000FDF74FFF53EC1A2BFDF74EFF41EC1B0B7F
:102800009FED550B53EC102B9DED0C0B51EC100B69
:10281000FDF71BFD41EC1A0B9FED510B51EC1B0B0F
:1028200053EC102BFDF711FD41EC1B0B9FED4E0BF4
:1028300053EC102B9DED0C0B51EC100BFDF705FD2F
:1028400053EC1B2BFDF784FE41EC100B48487844F9
:1028500000EBC40090ED001B51EC100B53EC112B5E
:10286000FDF776FE41EC1B0B3846FDF72FFFCDE957
:10287000080153EC1B2B51EC1A0BFDF769FE41ECE0
:10288000100B3C48784400EBC40090ED00CB51ECB9
:10289000100B53EC1C2BFDF75BFE9DED081B53EC5E
:1028A000112BFDF755FE0690CDE906519DED080B65
:1028B00053EC102B9DED060B51EC100BFDF7E9FED0
:1028C00053EC1C2BFDF7E5FE53EC1A2BFDF7E1FE54
:1028D00053EC1B2BFDF7E0FE41EC100B9DED261B8E
:1028E00053EC102B8DED001B00959DED260B51EC4C
:1028F000100BFDF7AAFC9DED000B41EC1A0B53ECFD
:10290000102B9DED260B51EC100BFDF7C2FE9DED3B
:10291000061B53EC112B2FE0000000604715F73F1A
:10292000FE822B654715F73F44DF5DF80BAE543E42
:1029300000000000000040438E9803007AB60B00B0
:10294000E2090000100A00001A090000000000005F
:102950000000000000000840000000E009C7EE3F52
:10296000FD033ADC09C7EE3FF5015B14E02F3EBEE4
:10297000A607000060070000FDF767FC53EC1A2B68
:10298000FDF7E6FD9DED060B41EC1A0B53EC102B09
:102990009DED000B51EC100BFDF757FCCDE90C0140
:1029A0009DED0C0B51EC1A0B53EC102BFDF7D0FDE9
:1029B000CDE902010C46AA498C422FDB611A08437B
:1029C00018D19DED0C0B53EC102B9DED020B51EC2F
:1029D000100BFDF75EFE41EC1B0B9FEDA30B51ECC2
:1029E0001A0B53EC102BFDF7B3FD53EC1B2BFDF72B
:1029F0007FFE2DD2022000F03BFA00F009FA10EE23
:102A0000901A18EE900A8DED020B8DED008B61F39C
:102A10001E0003909DED020BFFF7BEBB944A24F00D
:102A20000041914214D39349214408437FF4EFAC11
:102A30009DED0C0B53EC102B9DED020B51EC100B8C
:102A4000FDF727FE53EC1A2BFDF752FE7FF6DFACA5
:102A500024F000408849894A002601EB2051824237
:102A60002BDA481C4FF4801121FA00F02044844AEC
:102A7000C0F30A517A44A1F2FF3192ED000B814A72
:102A80008DED080BCA4020EA0202C0F3130040F4A7
:102A90008010C1F1140120FA01F60992002CB8BF90
:102AA00076429DED080B53EC102B9DED0C0B51EC79
:102AB000100BFDF7EEFDCDE90C019DED0C0B51EC7B
:102AC0001A0B53EC102BFDF743FD9FED6F0B089095
:102AD000CDE9085153EC102B9DED080B51EC100B78
:102AE000FDF7B3FB41EC1B0B9FED690B53EC102B77
:102AF0009DED080B51EC100BFDF7A7FB9DED0C0BAA
:102B000041EC1C0B53EC102B9DED080B51EC100B02
:102B1000FDF7BFFD53EC1A2BFDF7BEFD9FED5E1BCD
:102B200053EC112BFDF791FB53EC1C2BFDF710FD23
:102B300041EC1A0B51EC1B0B53EC1A2BFDF708FD63
:102B4000CDE902019DED020B53EC1B2B51EC100B58
:102B5000FDF79FFD53EC1A2BFDF79EFD9DED020B3B
:102B600041EC1A0B53EC102B51EC100BFDF76DFBE5
:102B7000CDE908014A489DED080B0521784400F095
:102B800097F89DED081B51EC100B53EC112BFDF742
:102B90005CFB9DED021B53EC112BFDF77DFDCDE998
:102BA00006019DED020B53EC1A2B51EC100BFDF7B7
:102BB0004CFB53EC1A2BFDF7CBFC9FED3B0B41EC90
:102BC0001A0B53EC102B9DED060B51EC100BFDF77F
:102BD00060FD9DED060B41EC1B0B53EC102B9DEDA6
:102BE000020B51EC100BFDF730FB53EC1B2BFDF7E8
:102BF0009EFB53EC1A2BFDF74CFD9DED021B53EC95
:102C0000112BFDF746FD53EC192BFDF745FDCDE9E2
:102C1000020101EB065001150029C8BF039015DC25
:102C20009DED020B324651EC100BFDF738FDFFF71E
:102C3000EFF9042808BF00F0FBF832469DED020BC7
:102C400051EC100BFDF72BFDCDE902019DED020BC0
:102C500051EC180B53EC102BFDF7F7FAFFF73ABBCA
:102C60000000904000000000FE822B654715973C55
:102C700000CC904000346F3F01FCFFFF0000E03FBC
:102C8000E8050000FFFF0F0000000000432EE63FB4
:102C9000396CA80C615C20BEEF39FAFE422EE63F8B
:102CA000B804000000000000000000000000004028
:102CB00070B504462DED028B4D1E00EBC500B0EE45
:102CC000408AF0EE608A90ED000B35F0060017D0D8
:102CD00053EC182B51EC100BFDF7B7FA41EC100B2D
:102CE0006D1E04EBC50090ED001B51EC100B53EC76
:102CF000112BFDF72DFC41EC100B35F00600E7D150
:102D0000022D36D0042D1CD0062D1CBFBDEC028B2D
:102D100070BD53EC182B51EC100BFDF796FA94EDA7
:102D20000A1B53EC112BFDF713FC53EC182BFDF78A
:102D30008CFA94ED081B53EC112BFDF709FC41ECC8
:102D4000100B53EC182B51EC100BFDF77EFA94EDA1
:102D5000061B53EC112BFDF7FBFB53EC182BFDF777
:102D600074FA94ED040B53EC102BFDF7F1FB41ECDE
:102D7000100B53EC182B51EC100BFDF766FA94ED89
:102D8000021B53EC112BFDF7E3FB53EC182BFDF763
:102D90005CFA94ED001B53EC112BFDF7D9FBBDEC55
:102DA000028B41EC100B70BD9FED070B10B553EC7F
:102DB000102B9FED070B51EC100BFDF7B8FA41EC0F
:102DC000100B10BD0000000000000000000000001B
:102DD000000000000000F03F10B553EC112B51EC47
:102DE000100BFDF7B5FB41EC100B10BD000000000F
:102DF0009FED050B10B553EC102B51EC100BFDF7AC
:102E000096FA41EC100B10BD00000000000000001D
:102E10009FED050B10B553EC102B51EC100BFDF78B
:102E200014FA41EC100B10BD00000000000000700F
:102E30009FED050B10B553EC102B51EC100BFDF76B
:102E400004FA41EC100B10BD00000000000000105F
:102E500002E008C8121F08C1002AFAD17047704763
:102E6000002001E001C1121F002AFBD170470000C1
:102E70000149086070470000180000202DE9F0416A
:102E800016460F460446002503E03946B047641C49
:102E90006D1C20780028F8D12846BDE8F08182B06A
:102EA000CDE9000121F0004001909DED000B02B042
:102EB00051EC100B7047000013B54FF6FF73012261
:102EC00069460248FEF78DFD00981CBD7400002085
:102ED000FDF746FFFEF7EAFEFEF7D6FDFEF70CFE15
:102EE000FEF72CFE0EA0FFF78BF8FDF78EFC0120FD
:102EF000FDF7A6FD0020FDF7A3FD12490020FDF718
:102F0000D7FC00210846FDF757FD0020FDF7ACFC7B
:102F10000020FDF7BBFC0220FDF728FDFEE70000C6
:102F20002A2A2A2053544D33324634303720414424
:102F300039383334205465737420537461727420AB
:102F40002A2A2A0040420F0000B52DED048B83B0E1
:102F500041EC190BFDF708FC41EC180B18EE100AB8
:102F600018EE901A8DED008B002818BF0120084341
:102F700020F00040C0F17F6000F1E040C00F14D0AD
:102F800019EE101A19EE900A8DED009B002918BF5A
:102F90000121084320F00040C0F17F6000F1E040D3
:102FA000C00F04BF0120FFF763FF51EC180B03B003
:102FB000BDEC048B00BD0000000000000000010219
:102FC00003040607080900000000010203040000D2
:102FD00000C0000000000000000000000000F03F02
:102FE000000000000000F83F0000000000000000AA
:102FF0000000004003B8E23F0000000000000000B5
:1030000006D0CF43EBFD4C3E033333333333E33F42
:10301000FFAB6FDBB66DDB3F4D268F515555D53F6E
:1030200001411DA96074D13F65DBC9934A86CD3F3C
:10303000EF4E454A287ECA3F3E5555555555C53F2A
:1030400093BDBE166CC166BF2CDE25AF6A56113F1C
:10305000F16BD2C541BDBBBED0A4BE726937663E1E
:103060000000000000000000883000080000002080
:103070001C000000502E0008A43000081C00002096
:10308000A4040000602E00080100000010000000F1
:10309000000000000024F4000020000000000000F8
:0430A000000000002C
:040000050800018965
:00000001FF
